:100E8F0057484954453A3030207C20544F54414CF8
:100E9F0000424C41434B3A3030207C203030200010
:100E050001090101110201080F010D80010EC00148
:100E15001210010C14010B1801131C010A08010F13
:040E25000C011000AC
:100E6F00E4FDFCC3ED9FEC9E5015E4FBFA0BBB00B9
:0F0E7F00010AEB64354A70F50DBD00010C80E4EB
:010E8E002241
:0C0EDF00D2A47F047E00120E6FC2A42279
:100E4E00A90775A080C2A4C2A6E954F0FFC4540F2E
:100E5E004480F5A0120EDFE9540F4480F5A0020E77
:010E6E00DFA4
:100EAF00C2A4C2A675A082120EDFAF09120E4EAFFA
:090EBF0008120E4EAF11020E4E96
:030E2A002430FF72
:100E2D00A90775A0C0C2A4D2A6E954F0FFC4540FFF
:100E3D0044C0F5A0120EDFE9540F44C0F5A0020E18
:010E4D00DFC5
:060D57008B178A188919B0
:100D5D00E4F51AAB17AA18A919120B5DFF6017124B
:100D6D000E2D74012519F519E43518F518051AE538
:060D7D001AC3941040DDD2
:010D8300224D
:020DB1008F179A
:100DB300E51775F00A84F5187F86120E4EE51812B2
:100DC3000E2AE51775F00A8485F0187F87120E4EF8
:080DD300E5182430FF020E2D8B
:020DDB008F1770
:100DDD00E51775F00A84F5187FC6120E4EE5181248
:100DED000E2AE51775F00A8485F0187FC7120E4E8E
:080DFD00E5182430FF020E2D61
:020D84008F17C7
:100D8600E51775F00A84F5187FCB120E4EE5182488
:100D960030FF120E2DE51775F00A8485F0187FCC0A
:0B0DA600120E4EE5182430FF020E2D47
:100EC8008F80D2B6C2B67F027E00120E6F7580FF89
:060ED800D2B7AF80C2B7E3
:010EDE0022F1
:100D2000758902758CB8D28C75D90475DA4275DB79
:100D30004275DC4275DD4275DE42E4F5FAF5FBF5FD
:100D4000FCF5FDF5FE75D840F5A87590FF7F1EFEF9
:070D5000120E6F75A880224E
:060B84007D5A7C007F0396
:020B8A008F17C3
:100B8C00AE04AF05E4120AA37B3B7AAA796A783FDC
:100B9C001208F87B667A6679E67840120A017BCDFA
:100BAC007ACC79CC78401208078F1B8E1A8D198C51
:100BBC0018E51724FE601F14603424027047AB1B29
:100BCC00AA1AA919A818E4FFFE7D807C4312080319
:100BDC00120ADC8FFC22AB1BAA1AA919A818E4FF75
:100BEC00FE7D807C43120803120ADC8FFD22AB1BB6
:100BFC00AA1AA919A818E4FFFE7D807C43120803E9
:050C0C00120ADC8FFE5E
:010C110022C0
:100C9E00E4F514F515F516120EAF120D20AF0D1268
:100CAE000E4E7BFF7A0E798F120D57AF0E120E4E2F
:100CBE007BFF7A0E79A0120D57AF0F120E4E120B4C
:100CCE00847F03120EC88F162096407FD07E0712A7
:100CDE000E6F7F03120EC88F16E516D3941E400EAC
:100CEE007DA5120B860515AF15120DDB800C7D0F41
:100CFE00120B860514AF14120DB1E5142515FF1253
:100D0E000D847F207E03120E6F80BDD2A7120B843E
:020D1E0080B69D
:10080000020B48E86480F8E933E83360110460F0D3
:10081000ED33EC337009E8FCE9FDEAFEEBFF22045E
:1008200060DED3EB9FEA9EE99DE8C2E78CF0C2F759
:1008300095F0400CE8CCF8E9CDF9EACEFAEBCFFB25
:10084000120B1385D0F05804700320D5B3E8047060
:10085000075002B2D5020B5292D5EC0460F7E4CCFB
:10086000C0E0C398F8603B94186008400DD0E0FBEE
:10087000020B2AE4FBFAC9FC8028E830E406E4C94C
:10088000FBE4CAFCE830E305E4C9CACBFCE8540742
:100890006010F8C3E913F9EA13FAEB13FBEC13FC4D
:1008A000D8F130F52FC3E49CFCEF9BFFEE9AFEEDF0
:1008B00099FDD0E0FBEF4E4D4C701222DB03020B92
:1008C0004FEC2CFCEF33FFEE33FEED33FDED30E764
:1008D000EB020B2AEF2BFFEE3AFEED39FDD0E0FBE9
:1008E00050130BBB0003020B52ED13FDEE13FEEF92
:0808F00013FFEC13FC020B2ABC
:1008F800EC4D6011E8497017ED33EC3304600DE4FA
:10090800FCFFFEFD22E933E8330470F8020B4812BD
:100918000B1358046009E4CC2481500628500902BE
:100928000B52284003020B4FC0E0EB4A7044B980D9
:1009380006D0E0FB020B3EEF4E701CBD8008EBFFBB
:10094800EAFEE9FD80EBE98DF0A4FEE5F00209E19D
:10095800E9CDF9EAFEEBFFEF89F0A4FCE5F0CE89DA
:10096800F0A42EFFE435F0CD89F0A42DFEE435F097
:100978008067EF4E7005BD80D780C3EF8BF0A4ACC5
:10098800F0EE8BF0A42CFCE435F0F8EF8AF0A42C00
:10099800E5F038FCE433CB8DF0A42CFCE5F03BF813
:1009A800EE8AF0A42CFCE5F038F8E433CF89F0A403
:1009B8002CFCE5F038CF3400CE89F0A42FFFE5F009
:1009C8003EFEE433C98DF0A42EFEE5F039CD8AF061
:1009D800A42FFFE5F03EFEE43DFD33D0E0FB5007D9
:1009E8000BBB000F020B52EC2CFCEF33FFEE33FE77
:0609F800ED33FD020B2AA5
:1009FE00020B52EC5D046005E859047003020B48CB
:100A0E00120B13580460F6EC4860F2EC7004FDFE15
:100A1E00FF22C860DB2481C85009C39860025006CB
:100A2E00020B4F9850CAF582E9294B4A7005AB82EA
:100A3E00020B3E75F0007C1A7880C3EF9BEE9AEDA8
:100A4E0099400DC3EF9BFFEE9AFEED99FDE842F043
:100A5E00DC23ACF0D0E0FFD0E0FED0E0FDAB822096
:100A6E00E7101BEB60BAEC2CFCEF33FFEE33FEED20
:100A7E0033FD020B2AE803F830E705C0F075F000ED
:100A8E00EF2FFFEE33FEED33FD40B830E7C280AA04
:100A9E0075F020800E75F010800575F0087D007ED3
:100AAE00007F003392D530D503120B76EC33401015
:100ABE00EF33FFEE33FEED33FDEC33FCD5F0ED22DC
:0E0ACE00E5F0247EA2D513CC92E7CDCEFF2218
:100ADC00EDD2E7CD33EC3392D524814006E4FFFE12
:100AEC00FDFC22FCE4CFCECDCC24E0501174FF8071
:100AFC00EDC3CC13CCCD13CDCE13CECF13CF04700E
:070B0C00F030D5DE020B768C
:100B1300E9D2E7C933E833F892D5EDD2E7CD33EC28
:070B230033FC5002B2D522A1
:100B2A00EC30E7100FBF000C0EBE00080DBD00042C
:100B3A000BEB6014A2D5EB13FCED92E7FD2274FFD8
:100B4A00FCFDFEFF22E480F8A2D574FF13FC7D8031
:030B5A00E480EF45
:03000000020C12DD
:0C0C1200787FE4F6D8FD75811B020C59B8
:100B5D00BB010689828A83E0225002E722BBFE0296
:090B6D00E32289828A83E49322C9
:0E0B7600C3E49FFFE49EFEE49DFDE49CFC2290
:100C1E00020C9EE493A3F8E493A34003F68001F242
:100C2E0008DFF48029E493A3F85407240CC8C333D7
:100C3E00C4540F4420C8834004F456800146F6DFA6
:100C4E00E4800B0102040810204080900E05E47E23
:100C5E00019360BCA3FF543F30E509541FFEE4939B
:100C6E00A360010ECF54C025E060A840B8E493A362
:100C7E00FAE493A3F8E493A3C8C582C8CAC583CA8D
:100C8E00F0A3C8C582C8CAC583CADFE9DEE780BE45
:010E290000C8
:00000001FF
